:1000000030C300000C94E3220C942E2347C300005D
:1000100045C3000043C3000041C300000C94EF1827
:100020003DC3000047C3000039C300000C944F13C8
:100030000C94972C33C3000031C300002FC3000081
:100040000C94B22D2BC300000C94FC2D27C3000090
:1000500025C3000023C3000021C300001FC300000C
:100060000C94721A1BC30000000000000000000086
:1000700000000000000000000000183C3C3C181884
:1000800018001818000000000063636322000000DD
:10009000000000000000000000000036367F363609
:1000A000367F3636000000000C0C3E6361603E0374
:1000B0000343633E0C0C0000000000000061630677
:1000C0000C183363000000000000001C36361C3B97
:1000D0006E66663B000000000030303060000000BB
:1000E000000000000000000000000C181830303044
:1000F0003018180C000000000000180C0C06060652
:10010000060C0C18000000000000000042663CFFD6
:100110003C6642000000000000000000181818FFB4
:100120001818180000000000000000000000000087
:10013000000018181830000000000000000000FF48
:1001400000000000000000000000000000000000AF
:10015000000018180000000000000103070E1C3802
:1001600070E0C0800000000000003E6363636B6BC2
:100170006363633E0000000000000C1C3C0C0C0C90
:100180000C0C0C3F0000000000003E6303060C183E
:100190003061637F0000000000003E6303031E0324
:1001A0000303633E000000000000060E1E36666674
:1001B0007F06060F0000000000007F6060607E0385
:1001C0000363733E0000000000001C3060607E632B
:1001D0006363633E0000000000007F630306060CBB
:1001E0000C1818180000000000003E6363633E63B3
:1001F0006363633E0000000000003E636363633F8F
:100200000303063C00000000000000000018180076
:10021000000018180000000000000000001818007E
:100220000000181818300000000000060C1830609C
:1002300030180C06000000000000000000007E00E6
:10024000007E0000000000000000006030180C0676
:100250000C1830600000000000003E6363060C0CC8
:100260000C000C0C0000000000003E63636F6B6B21
:100270006E60603E000000000000081C366363638F
:100280007F6363630000000000007E3333333E333E
:100290003333337E0000000000001E336160606075
:1002A0006061331E0000000000007C3633333333BE
:1002B0003333367C0000000000007F3331343C349F
:1002C0003031337F0000000000007F3331343C3494
:1002D000303030780000000000001E336160606F35
:1002E0006363371D000000000000636363637F6386
:1002F000636363630000000000003C1818181818BE
:100300001818183C0000000000000F06060606063C
:100310000666663C000000000000733336363C364B
:100320003633337300000000000078303030303056
:100330003031337F00000000000063777F6B636320
:10034000636363630000000000006363737B7F6F7F
:10035000676363630000000000001C36636363632F
:100360006363361C0000000000007E3333333E30F0
:10037000303030780000000000003E636363636348
:10038000636B6F3E0607000000007E3333333E365A
:10039000363333730000000000003E6363301C06F8
:1003A0000363633E000000000000FFDB991818188B
:1003B0001818183C00000000000063636363636367
:1003C0006363633E00000000000063636363636374
:1003D00063361C0800000000000063636363636B06
:1003E0006B7F3636000000000000C3C3663C18185F
:1003F0003C66C3C3000000000000C3C3C3663C18D2
:100400001818183C0000000000007F6343060C1819
:100410003061637F0000000000003C30303030303D
:100420003030303C00000000000080C0E070381C1C
:100430000E0703010000000000003C0C0C0C0C0C2B
:100440000C0C0C3C00000000081C3663000000008F
:10045000000000000000000000000000000000009C
:1004600000000000FF00000018180C000000000051
:10047000000000000000000000000000003C4606F4
:100480003E66663B0000000000007030303C3633B2
:100490003333336E0000000000000000003E636054
:1004A0006060633E0000000000000E06061E366617
:1004B0006666663B0000000000000000003E6363CB
:1004C0007E60633E0000000000001C3632307C304D
:1004D000303030780000000000000000003B66660D
:1004E00066663E06663C00000000703030363B33E6
:1004F000333333730000000000000C0C001C0C0CA4
:100500000C0C0C1E0000000000000606000E060683
:1005100006060666663C0000000070303033333655
:100520003C3633730000000000001C0C0C0C0C0C5B
:100530000C0C0C1E0000000000000000006E7F6B21
:100540006B6B6B6B0000000000000000006E33332B
:10055000333333330000000000000000003E6363CB
:100560006363633E0000000000000000006E333350
:1005700033333E303078000000000000003B6666F8
:1005800066663E06060F000000000000006E3B336A
:10059000303030780000000000000000003E63387A
:1005A0000E03633E0000000000000818187E1818B3
:1005B00018181B0E000000000000000000666666B0
:1005C0006666663B000000000000000000636336C2
:1005D000361C1C080000000000000000006363637C
:1005E0006B6B7F3600000000000000000063361CCB
:1005F0001C1C366300000000000000000063636301
:1006000063633F03063C000000000000007F660CAF
:100610001830637F0000000000000E1818187018D2
:100620001818180E000000000000181818181800FC
:1006300018181818180000000000701818180E1864
:10064000181818700000000000003B6E0000000049
:10065000000000000000000000000000240027004F
:100660002A0011241FBECFEFD8E0DEBFCDBF12E0BD
:10067000A0E0B1E0E0E6F8E602C005900D92A232FB
:10068000B107D9F726E0A2E2B2E001C01D92AD3C6D
:10069000B207E1F70E94362E0C942E34B1CC1092A2
:1006A000B00087E08093B1001092B20081E08093A7
:1006B000700008951F920F920FB60F9211248F931E
:1006C000809127028F5F809327028F910F900FBE3A
:1006D0000F901F901895CF93DF93809123029091F4
:1006E0002402A0912502B09126020097A105B10530
:1006F00009F450C02AE0E5E3F3E0EF0119922A95EE
:10070000E9F720EF209335032DE020933603209165
:10071000E30420933803282F2F7720933903AC016B
:10072000BD0127E076956795579547952A95D1F7AE
:100730004F7740933A03AC01BD013EE07695679553
:10074000579547953A95D1F74F7740933B03AC01C6
:10075000BD01E5E17695679557954795EA95D1F7FF
:100760004F7740933C03FCE1B695A7959795879505
:10077000FA95D1F780933D0387EF80933E03109263
:10078000230210922402109225021092260281E088
:1007900080932202DF91CF9108958091E3040E941B
:1007A000452B8823D1F38091B20090E090932D02E5
:1007B00080932C021092B20080912C0290912D0215
:1007C00005970897E0F48091E3040E94452B81117E
:1007D000FACF8091B20090E090932D0280932C028A
:1007E0001092B20080912C0290912D029C01255014
:1007F00031092830310528F04797079720F08FEF0F
:10080000089580E0089581E008950F931F93CF939A
:10081000DF9310922302109224021092250210926C
:100820002602C8E0D0E0B9DF81114AC02197D9F78C
:10083000C6E0D0E0B2DF813009F042C02197D1F7A5
:10084000ACDF81113DC0A9DF8130D1F5CFE0D0E030
:1008500001E010E0A2DF8130F9F4C8010C2E02C0E3
:10086000880F991F0A94E2F7092E000CAA0BBB0B04
:10087000409123025091240260912502709126023A
:10088000842B952BA62BB72B8093230290932402C5
:10089000A0932502B09326022197E0F680912302CF
:1008A00090912402A0912502B0912602AA27BB278D
:1008B0008093230290932402A0932502B0932602F2
:1008C000DF91CF911F910F9108958093E3041092CF
:1008D000B2008091E3040E94452B882329F0809187
:1008E000B20010922702F5CF1092B2008091E3047B
:1008F0000E94452B8823D1F38091B20090E0909321
:100900002D0280932C021092B20080912C029091C3
:100910002D028C589109049760F58091E3040E94A0
:10092000452B8111FACF8091B20090E090932D0277
:1009300080932C021092B20080912C0290912D0293
:100940009C01245431092530310508F45ECF82978B
:10095000039778F48091E3040E94452B8823D1F318
:100960008091B20090E090932D0280932C0210921F
:10097000B20008958F929F92AF92BF92CF92DF9272
:10098000EF92FF92CF936C01C62F0E945D204B0126
:100990005C010D2C000CEE08FF0861E08C2F0E941A
:1009A000172B80912802909129020E94BB2060E0C1
:1009B0008C2F0E94172B80912802909129020E946F
:1009C000BB200E945D20DC01CB0188199909AA098E
:1009D000BB098C159D05AE05BF05F8F2CF91FF90C0
:1009E000EF90DF90CF90BF90AF909F908F90089541
:1009F0008F929F92AF92BF92CF92DF92EF92FF922F
:100A00006C01F62E0E945D204B015C0160E08F2D91
:100A10000E94172B0D2C000CEE08FF080E945D2091
:100A2000DC01CB0188199909AA09BB098C159D0520
:100A3000AE05BF0598F3FF90EF90DF90CF90BF9089
:100A4000AF909F908F900895E62FF0E0E25EFE4F0A
:100A5000E0819E2F977041E050E09A0101C0220F83
:100A60009A95EAF7F0E093E0F695E7959A95E1F725
:100A7000BF01660F771FE60FF71FB096922F909574
:100A80003281932392839181292B2183682F70E0F7
:100A9000CA010E94DE31072E000C880B990B0E94C0
:100AA000453020E030E04AE754E40E940F3120E076
:100AB00030E040EC50E40E94462F0E9412306093D8
:100AC00028027093290280932A0290932B020895A2
:100AD000AF92BF92CF92DF92EF92FF920F931F934C
:100AE000CF936B017C01C42F5901642F86E2ACDFE8
:100AF0006C2F88E293E23EDF6C2F84E991E178DF8E
:100B000000E010E06C2F80E392E00A151B05A4F4CE
:100B1000F7FE06C02FDF6C2F80E496E069DF05C08A
:100B200029DF6C2F80E392E063DFCC0CDD1CEE1C30
:100B3000FF1C0F5F1F4FE6CF1DDF6C2F80E090E0A2
:100B4000CF911F910F91FF90EF90DF90CF90BF90CA
:100B5000AF904ECFE82FF0E0EE5CFE4FE0812E2FFD
:100B6000277081E090E001C0880F2A95EAF7F0E055
:100B700093E0F695E7959A95E1F79F01220F331FD1
:100B8000E20FF31FB096982F9095228192239283C3
:100B90009181892B81830895AF92BF92CF92DF928A
:100BA000EF92FF920F931F93CF93DF936C01C62FA9
:100BB000D0E0CC0FDD1F8E01085B1D4FF801808156
:100BC0009181009729F00E949533F80111821082DB
:100BD0008E01025D1D4FF80180819181009729F0FF
:100BE0000E949533F801118210829091D604809171
:100BF000EA04981719F084E090E002C083E090E0E6
:100C00008C9D50018D9DB00C9C9DB00C1124B09218
:100C1000D804A092D704C5010E94FD328C01FE01C8
:100C2000E85BFD4F91838083892BE9F0C5010E9429
:100C3000FD327C01FE01E25DFD4F91838083892BB3
:100C400091F0A50160E070E0C8010E942734A50181
:100C500060E070E0C7010E942734D092F104C09296
:100C6000F00481E019C0C8010E949533FE01E85BE1
:100C7000FD4F11821082C25DDD4F888199810E94F3
:100C80009533198218821092D8041092D7041092CA
:100C9000F1041092F00480E0DF91CF911F910F9149
:100CA000FF90EF90DF90CF90BF90AF90089531E02C
:100CB0002091D6049091EA04291330E0482F429500
:100CC0004695469543704093D604982F929593701D
:100CD0009093EA04282F2695269523702093DF040D
:100CE00083708093E60481E08093E904E62FF0E0CE
:100CF000EE0FFF1FE85BFD4F0190F081E02DEF2B21
:100D000049F0491380E0381729F08091F004909160
:100D1000F10442CF08950F931F93CF93C82F809172
:100D200042038F3F99F08091EB048C130FC08091A8
:100D3000EC049091ED048617970741F48091EE043E
:100D4000841304C08091EF04821729F1822F8B0154
:100D5000C093EB047093ED046093EC044093EE04B5
:100D60002093EF044093E5046C2FA1DF6C2FC801A2
:100D700013DFC82F882369F08091420387FD06C0E6
:100D8000E9DE60E0809142030E94172B81E08093AE
:100D9000E4048C2F00C0CF911F910F910895611131
:100DA000D9CEE82FF0E0EE5CFE4F8081E82FF0E036
:100DB00093E0F695E7959A95E1F79F01220F331F8F
:100DC000E20FF31FB096282F277081E090E001C05A
:100DD000880F2A95EAF780959181982391839281D3
:100DE000892382830895CF93C82F8091E4048823B8
:100DF00031F08091420387FD02C060E0D0DFC093F4
:100E000042038091E404882331F08C2FA3DE60E05C
:100E10008C2F0E94172B8C2F90E0FC01E750FE4F87
:100E2000E081F0E0EE0FFF1FE151FE4F20813181A4
:100E30003093E8042093E704FC01E552FE4F8081E3
:100E40008093D104CF9108954F925F926F927F92D9
:100E50008F929F92AF92BF92CF92DF92EF92FF92CA
:100E60000F931F93CF93DF93CDB7DEB729970FB6BC
:100E7000F894DEBF0FBECDBF722EC32ED42E598381
:100E800028E631E040E050E00E94F1314B015C0186
:100E9000ED82FE820F8318872D813E814F81588518
:100EA000243631054105510540F083E690E0A0E08D
:100EB000B0E08D839E83AF83B8878D819E81AF81A3
:100EC000B885C297A109B048880F991F97FF03C042
:100ED00091958195910924E630E0281B390B032E6A
:100EE000000C440B550B672D7C2D8D2D998164369C
:100EF00071058105910520F063E670E080E090E0E7
:100F00000E94BB31982F872F762F662720E137E28A
:100F100040E050E00E94F13129013A01ACE3CA2ED1
:100F2000D12CE12CF12CC501B401A70196010E943E
:100F3000F13129833A834B835C83998199872CE330
:100F4000A981BA812A9FC0012B9F900D1124092EDF
:100F5000000CAA0BBB0BA5019401281B390B4A0BF3
:100F60005B0B942F832F722F6627A70196010E9497
:100F7000F13189818170C82ED12CDC2CCC24DA94FB
:100F8000C20ED31ED7FE03C0D194C194D1080D2C3C
:100F9000000CEE08FF0880E091E0A0E0B0E09C01CA
:100FA000AD012C193D094E095F09C301B2010E9430
:100FB000BB31C72ED82EE92EFF249985992379F0CD
:100FC000913081F09230B9F09330E1F0943011F12A
:100FD000C982DA82EB82FC825301420121C05301B3
:100FE000420104C0460157017301620119821A824D
:100FF0001B821C8218C0C982DA82EB82FC827301D8
:10100000620104C049825A826B827C82812C912CBD
:10101000540109C049825A826B827C824601570181
:10102000C12CD12C76018D819E81AF81B885880F2E
:10103000991FAA1FBB1F6627782F892F9A2F24E696
:1010400030E040E050E00E94F131DA01C90184193A
:101050009509A609B7098C019D0136952795179525
:101060000795D501C401800F911FA21FB31F9927B7
:10107000AA27BB27DC0199278827C00ED11EE21EB4
:10108000F31EFE2CED2CDC2CCC24EE24FF248C292A
:101090009D29AE29BF2949815A816B817C81400FEE
:1010A000511F621F731FBC01CD01642B29960FB61F
:1010B000F894DEBF0FBECDBFDF91CF911F910F918E
:1010C000FF90EF90DF90CF90BF90AF909F908F9068
:1010D0007F906F905F904F900895CF932091F00490
:1010E0003091F1046217730708F058C02091D604BC
:1010F000C091EA0490E05091DF04A22FB0E040914B
:10110000E604880F991FFC012C1322C0E25DFD4FFD
:101110009B01220F331F620F731F20813181260F25
:10112000371FF901E50FF11D5081A20FB31F6C911C
:10113000862F90E0A0E0B0E0DC0199278827952B6E
:10114000F901E40FF11D2081BC01CD01622B29C002
:10115000E85BFD4F660F771F660F771F2081318197
:10116000260F371FA20FB31FEC91D901AC0FB11D91
:101170006C91862F90E0A0E0B0E0DC0199278827F1
:10118000BE2BF901E40FF11D4081842BF901E50F1D
:10119000F11D2081BC01CD01722B03C060E070E025
:1011A000CB01CF9108951F93CF93DF93CDB7DEB7D7
:1011B00029970FB6F894DEBF0FBECDBF182F13DEF0
:1011C0008091D7049091D8049A838983E12FF0E02D
:1011D000EE0FFF1FE85BFD4F0190F081E02DDF0176
:1011E0001196808189879091E904E091E704F0915C
:1011F000E8048091D104992309F436C09081982B9A
:1012000098879081809589238F838F818E8388E052
:101210008D83F89458856F81E091E704F091E8049C
:1012200049853D812E8189819A81508347FD252FF3
:101230003A952083262F39F0441F00C000006083B8
:10124000000000C0F2CF38E04D91608300000197AC
:1012500061F7F093E804E093E70449873D832E8328
:101260009A83898378943AC09081982B988790814B
:10127000809589238F838F818C8388E08B83588529
:101280006F8149853B812C8189819A81508347FDFB
:10129000252F00C000C0208300C000C000C000C0D7
:1012A00000C060830000262F3A9541F0441F0000E3
:1012B00000C000C000C000C000C0E8CF38E04D91C1
:1012C00000C0608300C0019709F7F093E804E09341
:1012D000E70449873B832C839A83898329960FB639
:1012E000F894DEBF0FBECDBFDF91CF911F9108955F
:1012F000CF92DF92EF92FF920F931F93CF93DF93E2
:101300006093E5042091F0043091F104232B09F45B
:1013100061C0A0E0B0E0C0E0D0E0E82FF0E0EE0F68
:10132000FF1F8F01085B1D4F9F01225D3D4F69012B
:101330002091F0043091F104C217D30708F041C0A6
:10134000F801408151817A01EA0EFB1EF6012081ED
:1013500031812A0F3B1F4091EA0450E0B901640F2C
:10136000751FFB0190816091E5044E0D5F1D969FF6
:10137000B0011124FA0170836091DF0470E0A901CB
:10138000460F571FFA0190814091E5046E0D7F1DB5
:10139000949FA0011124FB0150839091E604492FF2
:1013A00050E0240F351FF90190812091E5044E0D86
:1013B0005F1D929F90011124FA01308321961396AC
:1013C000B7CFDF91CF911F910F91FF90EF90DF90FA
:1013D000CF90E9CEDF91CF911F910F91FF90EF90C9
:1013E000DF90CF9008954F925F926F927F928F928D
:1013F0009F92AF92BF92CF92DF92EF92FF920F93A4
:101400001F93CF93DF9369017A01902F2091F0040D
:101410003091F1046217730708F093C08701222707
:1014200033274D2C5E2C6F2C7724A091D604E091AD
:10143000EA04482F50E0AE1317C0FB01EE0FFF1F68
:101440006E0F7F1F440F551FFA01E85BFD4F01909F
:10145000F081E02DE60FF71FDA01A25DBD4F4D913F
:101460005C91640F751F3FC0660F771F660F771F73
:10147000440F551FFA01E85BFD4F0190F081E02D0C
:10148000E60FF71FEA01C25DDD4F48815981640F05
:10149000751F8F2C9924AA24BB24EF01CA0FD11DDC
:1014A0004091E504442351F050E0489DD001499D0E
:1014B000B00D589DB00D11244B2F01C0482D48830D
:1014C0004091D604EB01C40FD11D4091E5044423A3
:1014D00049F050E0489DD001499DB00D589DB00D98
:1014E00011248B2E88824091EA04DB01A40FB11DE8
:1014F0000C934091DF04DB01A40FB11D4C9240918D
:10150000E604DB01A40FB11DCC924091E504049FD9
:1015100080011124449D200111244C9D600111245F
:101520002091EA04DF01A20FB11D1C932091DF047A
:10153000DF01A20FB11D5C922091E604E20FF11DC4
:10154000D082992389F0DF91CF911F910F91FF9065
:10155000EF90DF90CF90BF90AF909F908F907F9053
:101560006F905F904F901FCEDF91CF911F910F91A1
:10157000FF90EF90DF90CF90BF90AF909F908F90B3
:101580007F906F905F904F9008958F929F92AF924F
:10159000BF92DF92EF92FF920F931F93CF93DF934F
:1015A000D82E480159018091F0049091F10477FD03
:1015B00002C057FF05C0AC014150510960E070E026
:1015C000461757072CF4362F272FBA01432F522FD7
:1015D000009769F177FF02C060E070E07B01861739
:1015E000970708F47C0157FF02C040E050E08417E1
:1015F000950708F4AC01EA012196EC16FD0650F4BB
:1016000000E0A5019401B7018D2DEDDE8FEFE81A02
:10161000F80AF3CF8D2DDF91CF911F910F91FF909D
:10162000EF90DF90BF90AF909F908F90BCCDDF91F7
:10163000CF911F910F91FF90EF90DF90BF90AF90EF
:101640009F908F9008951F93CF93DF932091F00484
:101650003091F104232B19F1182FC82FD0E0CC0FB3
:10166000DD1FFE01E85BFD4F4091D7045091D80487
:1016700060E070E0808191810E942734C25DDD4F7F
:101680004091D7045091D80460E070E0888199813E
:101690000E942734812FDF91CF911F9184CDDF915C
:1016A000CF911F9108952F923F924F925F926F9228
:1016B0007F928F929F92AF92BF92CF92DF92EF92E2
:1016C000FF920F931F93CF93DF9300D000D01F9210
:1016D000CDB7DEB7898348015901160127014617A6
:1016E000570728F4962F872FBA01492F582F80913A
:1016F000F0049091F104009709F4C9C07D836C83D4
:101700008617970710F49D838C838417950708F438
:10171000AC014F5F5F4F9A018C819D81281B390B73
:101720003B832A83C10188599E4F8819990968E62D
:1017300071E00E94CA319C0144E6429FC001439F70
:10174000900D11246A817B810E94CA316B018A81CC
:101750009B810197A9F4860E971EB40180E090E06A
:1017600012E3E12EF12C00E010E024E630E040E04E
:1017700050E06ADB9B01AC0100E06C817D816CC0B4
:1017800012E3E12EF12C00E010E024E630E040E02E
:1017900050E0C501B40158DB9B01AC0100E06C8155
:1017A0007D81898120DE6C807D809FEF691A790AB6
:1017B000C69C9001C79C300DD69C300D11242C196D
:1017C0003D0944E6489DC001499D900D1124490101
:1017D000880E991EA12CB12C8C819D8101972A81A4
:1017E0003B81820F931F9B838A83AC0CBD1C8A8133
:1017F0009B8168167906F8F4C501880D991D64E689
:1018000070E00E94CA3168597E4F80E090E012E398
:10181000E12EF12C00E010E024E630E040E050E062
:1018200013DB9B01AC0100E0B3018981DCDD3FEFFC
:10183000631A730ADACF12E3E12EF12C00E010E014
:1018400024E630E040E050E0C201B101FDDA9B0146
:10185000AC0100E06A817B818981C5DD89810F90BF
:101860000F900F900F900F90DF91CF911F910F91DC
:10187000FF90EF90DF90CF90BF90AF909F908F90B0
:101880007F906F905F904F903F902F908CCC0F90F7
:101890000F900F900F900F90DF91CF911F910F91AC
:1018A000FF90EF90DF90CF90BF90AF909F908F9080
:1018B0007F906F905F904F903F902F900895AF92E0
:1018C000BF92CF92DF92EF92FF920F931F93CF932D
:1018D000DF93662309F46BC0C091F004D091F1044A
:1018E000209709F464C0C62E062E000CDD08CC1526
:1018F000DD0558F4DF91CF911F910F91FF90EF908C
:10190000DF90CF90BF90AF909ECE182F161634F078
:10191000A12CB12C7E01EC0CFD1C29C02197CC150B
:10192000DD0564F0BE016C197D09812FD6DB9B01BA
:10193000AC0100E0BE01812F56DDF0CFC0E0D0E069
:1019400000E020E030E0A901BE01812F4CDD2196AE
:10195000CC16DD06A9F7812FDF91CF911F910F9152
:10196000FF90EF90DF90CF90BF90AF901CCCEA1427
:10197000FB0478F0B5016C197D09812FAEDB9B016A
:10198000AC0100E0B501812F2EDD8FEFA81AB80A57
:10199000EECFEC16FD06F8F600E020E030E0A901FD
:1019A000B701812F20DD8FEFE81AF80AF2CFDF911F
:1019B000CF911F910F91FF90EF90DF90CF90BF904C
:1019C000AF9008952F923F924F925F926F927F92C5
:1019D0008F929F92AF92BF92CF92DF92EF92FF923F
:1019E0000F931F93CF93DF9300D0CDB7DEB7382E80
:1019F0002DB73EB73A832983662309F4D9C0E09016
:101A0000F004F090F104E114F10409F4D1C0862F40
:101A1000660F990BB7010E94CA31282EC82E082ED6
:101A2000000CDD084DB65EB618160CF04EC0C601AF
:101A3000880F991F880F991FEDB7FEB7E81BF90BA8
:101A40000FB6F894FEBF0FBEEDBF2DB73EB72F5FA8
:101A50003F4F3901590100E010E047018C189D0803
:101A6000B401600F711F832D38DBF5016193719311
:101A7000819391935F010F5F1F4F0C151D0584F338
:101A8000F1E0EF1AF108EC14FD0464F0B7016C19F1
:101A90007D09832D22DB9B01AC0100E0B701832D82
:101AA000A2DCEECFE12CF12CF30121913191419197
:101AB00051913F0100E0B701832D95DCFFEFEF1A54
:101AC000FF0AEC14FD0484F36CC0D194C194D108D6
:101AD000C601880F991F880F991F2DB73EB7281B85
:101AE000390B0FB6F8943EBF0FBE2DBF8DB79EB712
:101AF00001963C018C01A12CB12CAC14BD0469F001
:101B0000B501832DEADAF801619371938193919382
:101B10008F01FFEFAF1ABF0AF0CF812C912CA22CBE
:101B2000220CBB086701CA0CDB1CC814D90478F06E
:101B3000B4016A197B09832DD0DA9B01AC0100E066
:101B4000B401832D50DC2FEF821A920AEECF8FEF73
:101B50009FE3E89E4001E99E900CF89E900C1124B2
:101B60008A189B088C0C9D1C880C991C880C991C4D
:101B7000A12CB12CCE14DF04A0F4F501E80DF91D61
:101B8000E60DF71D208131814281538100E0B601CD
:101B9000832D29DC3FEFC31AD30A84E0A80EB11CC1
:101BA000E9CF0FB6F8945EBE0FBE4DBE832DFBDAB3
:101BB000E981FA810FB6F894FEBF0FBEEDBF0F901A
:101BC0000F90DF91CF911F910F91FF90EF90DF90D9
:101BD000CF90BF90AF909F908F907F906F905F90CD
:101BE0004F903F902F9008952F923F924F925F9287
:101BF0007F928F929F92AF92BF92CF92DF92EF929D
:101C0000FF920F931F93CF93DF9300D000D0CDB7F7
:101C1000DEB7782E7C836B83B8018B819C8148175B
:101C2000590730F49B818C815C834B83492F582F5B
:101C30008091F0049091F104009709F49DC0EB812C
:101C4000FC818E179F0710F49C838B838417950764
:101C500008F4AC011616170664F0872DF4DC00E0DA
:101C600020E03FEF4FEF50E06B817C81872DBBDBA5
:101C700067C0CA01EB81FC818E1B9F0B9A8389830D
:101C80006C01FFEFCF1ADF0AA90137FF03C051959E
:101C9000419551094C9DC0014D9D900D5C9D900D4D
:101CA00011240E94CA314B01672B49F0A12CB12CA1
:101CB000E12CF12C212C312C21012A943EC0EE2460
:101CC000E394F12CEC14FD04D8F56B817C816E0D4E
:101CD0007F1D00E020E030E0A901872D84DB8FEF3D
:101CE000E81AF80AEFCFE814F90408F040C0C5017B
:101CF00069817A810E94CA319B013327C901A0E022
:101D0000B0E09C0111270027D201C101861B970B6F
:101D1000A109B109A9019801282B00E06B817C8100
:101D2000872D61DB9FEFE91AF90AEFEFAE0EB11CC8
:101D30008B819C8101969C838B83EC14FD0498F22B
:101D4000872D0F900F900F900F90DF91CF911F91E3
:101D50000F91FF90EF90DF90CF90BF90AF909F904A
:101D60008F907F905F904F903F902F901CCA00E023
:101D700020E030E0A901D2CF0F900F900F900F908C
:101D8000DF91CF911F910F91FF90EF90DF90CF9057
:101D9000BF90AF909F908F907F905F904F903F90BB
:101DA0002F90089504C0615071098109910961154E
:101DB000710581059105B9F70895AF92BF92CF9251
:101DC000DF92EF92FF920F931F93CF93DF931092C6
:101DD000F2041092F3041092F4041092F50410929D
:101DE000F604FC01E350FB4FC081FC01ED5FFA4FAC
:101DF000D08161E070E08C2F0E94C72A60E08C2FB8
:101E00000E94172BDD2371F1A12C24E2B22E34EFB6
:101E1000C32ED12CE12CF12C00E010E02D2F30E06E
:101E200040E050E060E070E080E090E00E944E32E0
:101E3000E6E0AE2EB12CC12C0E94A13229513C4FBC
:101E40004F4F5F4F6F4F7F4F8F4F9F4F0E9480309C
:101E500020E030E04AE754E40E94AA2F0E941730A5
:101E6000A1DF05C063E070E080E090E09BDF60E010
:101E700070E08C2F0E94C72A88E290E00E94BB206D
:101E800000E911E08C2F0E94452B811106C0015002
:101E90001109C1F78EEF9FEF49C000E911E08C2FC7
:101EA0000E94452B882321F001501109C1F7F2CF80
:101EB00018E200E0D0E890E9E92EFF24F3948C2F9B
:101EC0000E94452B811105C081E0E81AF108B9F79D
:101ED000E1CF0E945D206B017C0180E9A82EBB242C
:101EE000B3948C2F0E94452B882329F081E0A81AF7
:101EF000B108B9F7CFCF0E945D20DC01CB018C196E
:101F00009D09AE09BF098997A105B10538F0E02FF9
:101F1000F0E0EE50FB4F80818D2B8083D69511F43D
:101F20000F5FD0E8115039F680E090E0DF91CF915B
:101F30001F910F91FF90EF90DF90CF90BF90AF90E7
:101F4000089587FF07C08FE790E090930A0580937C
:101F5000090505C090E090930A05809309056295F4
:101F6000607F603128F410920D0510920C050895E1
:101F700080EF860F803138F480E190E090930D057A
:101F800080930C0508956052603138F480E290E04F
:101F900090930D0580930C05089580E390E0909355
:101FA0000D0580930C05089580930B050895EF921D
:101FB000FF920F931F93CF93DF93162F7A01E901BE
:101FC0008CE30E94D71B812F0E94FC1B8701C80154
:101FD0008E199F098C179D0734F4F80181918F01A8
:101FE0000E94FC1BF4CF81E00E94E11BCE01D7FFD1
:101FF00002C080E090E0DF91CF911F910F91FF90A0
:10200000EF900895CF93DF93D62FC42F8CE30E94D7
:10201000D71B8D2F0E94FC1B8C2F0E94FC1B81E084
:10202000DF91CF910C94E11BEF920F931F93CF930D
:10203000DF93C62F142FD22F41E28CE3E3DF412F31
:102040006C2F8CE3DFDF4D2F6C2F8CE3DBDF42E264
:102050006C2F8CE3D7DF402F6C2F8CE3D3DF4E2D1A
:102060006C2F8CE3DF91CF911F910F91EF90CACF2E
:102070002F923F924F925F926F927F928F929F9298
:10208000AF92BF92CF92DF92EF92FF920F931F9386
:10209000CF93DF9300D000D01F92CDB7DEB7F82EDC
:1020A0006B831A0149012DB73EB73A832983011585
:1020B000110509F4D7C087FDD5C0603408F0D2C03F
:1020C000C40187709927892B09F0CCC03A0157FFCA
:1020D00003C037E0630E711C33E0759467943A9542
:1020E000E1F7C40197FC0796AC0123E055954795AD
:1020F0002A95E1F75D834C83829CA001839C500D5F
:10210000929C500D112457FF02C0495F5F4F93E02E
:10211000559547959A95E1F78DB79EB7841B950B1A
:102120000FB6F8949EBF0FBE8DBF2DB73EB72F5F81
:102130003F4F690160E070E0C9010E942734A09020
:102140000E05B0900F0520E030E0822F28153905EC
:10215000D4F420343105B9F0982F9695969596953C
:10216000929D2001939D500C1124877041E050E016
:1021700002C0440F551F8A95E2F7642F942F909563
:10218000D80180E01CC05B81A52EB12C812C912C44
:102190004F2C512C3101640C751C71E0671A7108C9
:1021A00039C087FD2BC0F201E80FF11D57FD11C0AA
:1021B000E11016C0550F8F5F8413F3CF842FAD014C
:1021C000401B510B46155705DCF45D9148E0480F64
:1021D000E8CFEC0DFD1D71E0A716B10439F40AC07B
:1021E000EC0DFD1D71E0A716B10421F47081792377
:1021F0007083E0CF7081762B7083DCCF482FDECFE9
:10220000C30177FE02C080E090E0080F191F2F5F26
:102210003F4F9BCF2C813D8182169306DCF48501D4
:1022200083E0159507958A95E1F778019301A2015E
:1022300060E88CE390E0F8DE9101A60160E48CE3B5
:10224000B6DE8FEF881A980A98E0A90EB11CC20C6E
:10225000D31CE0CF49815A810FB6F8945EBF0FBE00
:102260004DBF07C089819A810FB6F8949EBF0FBEFB
:102270008DBF29813A810FB6F8943EBF0FBE2DBFA6
:102280000F900F900F900F900F90DF91CF911F91B3
:102290000F91FF90EF90DF90CF90BF90AF909F9005
:1022A0008F907F906F905F904F903F902F90089508
:1022B000CF92DF92EF920F931F93CF93DF93CDB71F
:1022C000DEB760970FB6F894DEBF0FBECDBF6C01CE
:1022D000F6018081882309F44CC0C114D10409F4AB
:1022E00048C080524091090550910A054837510570
:1022F00074F040910C0550910D05405F5F4F509375
:102300000D0540930C0510920A0510920905609185
:102310000C0570910D05613471055CF5DE011196B7
:1023200040E1849FC001112440E050E08D01FA019A
:10233000E80FF91FE859FF4FE491ED934F5F5F4FAE
:1023400040315105A1F78FEFC81AD80AEE24E39463
:1023500020E130E048E050E08091090589DE80917D
:10236000090590910A05089690930A05809309053E
:10237000AFCF60960FB6F894DEBF0FBECDBFDF9132
:10238000CF911F910F91EF90DF90CF900895AF9272
:10239000BF92CF92DF92EF92FF920F931F93CF9352
:1023A000DF93CDB7DEB760970FB6F894DEBF0FBEF0
:1023B000CDBF6B017C01CE0101965C01232B242B48
:1023C000252B39F040E150E06FEF70E00E94273498
:1023D00005C080E1F50111928A95E9F7C601880FE1
:1023E000991FF1E0CF1AD108E108F0E8FF0A860151
:1023F000000F111F7C012FE730E040E050E060E863
:102400008CE390E011DE10E120E130E0A50160E412
:102410008CE3CDDD1150C1F760960FB6F894DEBFA6
:102420000FBECDBFDF91CF911F910F91FF90EF9025
:10243000DF90CF90BF90AF900895AF92BF92CF92B0
:10244000DF92EF92FF920F931F93CF93DF93CDB75D
:10245000DEB760970FB6F894DEBF0FBECDBF5C014C
:1024600060910B05C62E062E000CDD0881E0C81A0F
:10247000D10884E0CC0CDD1C8A95E1F721E030E046
:1024800040E050E080910E0590910F05019719F4FE
:1024900020E030E0A901062E000C770B880B990B89
:1024A00076DFF12CF5012081222359F1A114B1042A
:1024B00041F140EE420FE0E8FE1619F1DE011196FF
:1024C000F0E14F9FA001112480E090E08D01FC011C
:1024D000E40FF51FE859FF4FE491ED930196803129
:1024E0009105A9F7EE24E39420E130E048E050E0C4
:1024F0006C2D8F2DBDDD8FEFA81AB80AE8E0FE0E17
:10250000D1CF60960FB6F894DEBF0FBECDBFDF917E
:10251000CF911F910F91FF90EF90DF90CF90BF90E0
:10252000AF900895CF92DF92EF92FF920F931F9397
:10253000CF93DF93CDB7DEB760970FB6F894DEBFC9
:102540000FBECDBF9E012F5F3F4F6901882341F031
:1025500040E150E06FEF70E0C9010E94273405C0F0
:1025600080E1F90111928A95E9F787E0E82EF12CD4
:1025700000E010E02FE730E040E050E060E88CE35E
:1025800090E052DD10E420E130E0A60160E48CE34D
:102590000EDD1150C1F760960FB6F894DEBF0FBE86
:1025A000CDBFDF91CF911F910F91FF90EF90DF9002
:1025B000CF90089541EA60E88CE324DD48EC60E8C0
:1025C0008CE320DD80E0AECF95D64EEA60E88CE368
:1025D00019DD45ED60E88CE315DD40EF60E88CE344
:1025E00011DD48EA60E88CE30DDD4FE360E88CE341
:1025F00009DD43ED60E88CE305DD40E060E88CE355
:1026000001DD40E460E88CE3FDDC4DE860E88CE34C
:10261000F9DC44E160E88CE3F5DC40E260E88CE35F
:10262000F1DC40E060E88CE3EDDC40EA60E88CE35C
:10263000E9DC40EC60E88CE3E5DC4AED60E88CE343
:10264000E1DC42E160E88CE3DDDC41E860E88CE35A
:10265000D9DC4FEC60E88CE3D5DC49ED60E88CE335
:10266000D1DC41EF60E88CE3CDDC44EA60E88CE348
:10267000C9DC46EA60E88CE3C5DC4EE260E88CE346
:10268000C1DC4FEA60E88CE3BDDC94DF80E04ADF28
:1026900081E090E090930F0580930E0508951F92BE
:1026A0000F920FB60F9211242F933F934F935F9386
:1026B0006F937F938F939F93AF93BF93EF93FF930A
:1026C00080916C0287FF05C01092850010928400F3
:1026D0002DC020916C02022E000C330B809106015C
:1026E00090E02817390714F580916C02082E000C31
:1026F000990BFC01EE0FFF1F8E0F9F1FFC01E3598A
:10270000FD4F808186FF12C080916C02082E000C64
:10271000990BFC01EE0FFF1F8E0F9F1FFC01E35969
:10272000FD4F808160E08F730E94172B80916C02B7
:102730008F5F80936C0220916C02022E000C330B91
:102740008091060190E0281739070CF040C0809175
:102750006C028630E4F520918400309185008091F0
:102760006C02082E000C990BFC01EE0FFF1F8E0F60
:102770009F1FFC01E359FD4F81819281820F931FBE
:10278000909389008093880080916C02082E000C41
:10279000990BFC01EE0FFF1F8E0F9F1FFC01E359E9
:1027A000FD4F808186FF2EC080916C02082E000CA8
:1027B000990BFC01EE0FFF1F8E0F9F1FFC01E359C9
:1027C000FD4F808161E08F730E94172B1BC08091A9
:1027D000840090918500049680349C4938F480E40C
:1027E0009CE9909389008093880009C080918400BF
:1027F00090918500049690938900809388008FEFD4
:1028000080936C02FF91EF91BF91AF919F918F9157
:102810007F916F915F914F913F912F910F900FBEDC
:102820000F901F901895EF92FF920F931F93CF93E5
:10283000C82F7B018A0161E070E00E94C72ACF7334
:1028400080916D02807CC82BC0936D0280E292E083
:102850008E199F0997FD0396959587959595879570
:1028600080936B0280E699E0801B910B97FD0396A5
:10287000959587959595879580936A0280E090E07D
:10288000FC01EE0FFF1FE80FF91FE359FD4F2081F8
:1028900026FD13C001968630910591F710928000B5
:1028A00082E0809381001092850010928400B19A9A
:1028B00080916F00826080936F0080916D028064D0
:1028C00080936D0280E0CF911F910F91FF90EF9068
:1028D0000895AC0180916B0228E830E0281B310993
:1028E00087FD3395C901880F991F880F991F4817D5
:1028F00059078CF080916A0228E532E0281B3109E3
:1029000087FD3395220F331F220F331FCA0124176F
:1029100035070CF4C90102972FB7F894092E000C63
:10292000AA0BBB0B34E0880F991FAA1FBB1F3A9557
:10293000D1F743E0B695A795979587954A95D1F736
:1029400090936F0280936E022FBF0895CF92DF9213
:10295000EF92FF92803222E092070CF03FC097FD89
:1029600006C0853B91052CF084EB90E002C080E02E
:1029700090E020916B0248E850E06A01C21AD10849
:1029800027FDD394CC0CDD1CCC0CDD1C0D2C000CD5
:10299000EE08FF0840916A0228E532E0241B310965
:1029A00047FD3395220F331F220F331FA901330F29
:1029B000660B770B9A01AB012C193D094E095F0993
:1029C000DC010E94483224EB30E040E050E00E94FD
:1029D0001332C20ED31EE41EF51EC601FF90EF9007
:1029E000DF90CF9076CF8CE08093060180E090E07E
:1029F00028EB3BE0FC01EE0FFF1FE80FF91FE35946
:102A0000FD4F3283218301968C30910599F708950B
:102A10008EBD00000DB407FEFDCF8EB50895CF9397
:102A2000CFB7F894E0910302F0E0EE0FFF1FE85AF1
:102A3000F94F0190F081E02D90818091E50189238B
:102A400021F461E08AE00E94172B61E070E08AE0E7
:102A50000E94C72A8CB580618CBD8CB580648CBD0A
:102A600061E070E08DE00E94C72A61E070E08BE0D9
:102A70000E94C72ACFBFCF91089561E070E08AE03D
:102A80000E94C72A61E08AE00C94172BEF92FF9214
:102A90000F931F93CF93DF93D82FC92F7B0160E053
:102AA0008AE00E94172B82E0B3DF80E0B1DF0D2FB8
:102AB0001C2FE00EF11EC0E00E151F0591F0C03274
:102AC00031F0CF5FF80181918F01A2DFF5CF61E096
:102AD0008AE0DF91CF911F910F91FF90EF900C94BE
:102AE000172BCF5FC13299F380E092DFFACF0F93BB
:102AF0001F93CF93DF93CDB7DEB7A0970FB6F894AF
:102B0000DEBF0FBECDBFDC018E010F5F1F4F80E225
:102B1000F80111928A95E9F785E589836A839C918A
:102B200084E0890F8B834C8360E0492F990F550B0C
:102B3000262F30E02417350774F485E090E08C0FE1
:102B40009D1F820F931F2A0F3B1FF9012181FC015A
:102B500020836F5FEDCF60E270E0C80197DF61E036
:102B600070E080E090E00E948220A0960FB6F8947A
:102B7000DEBF0FBECDBFDF91CF911F910F910895A2
:102B80000F931F93CF93DF938C0160E08AE00E9444
:102B9000172B83E03DDF80E03BDFE801005E1F4F45
:102BA00080E036DF8993C017D107D1F761E08AE072
:102BB000DF91CF911F910F910C94172B0F931F93BF
:102BC000CF93DF93CDB7DEB7C056D1090FB6F894D7
:102BD000DEBF0FBECDBF8E010F5F1F4F20E4F80197
:102BE00011922A95E9F725E529836A83FC01019072
:102BF0000020E9F7E81BED5FEB834C83FC010190BB
:102C00000020E9F73197AF01481B590BBC01CE01F9
:102C100005960E941E3460E270E0C80137DF61E073
:102C200070E080E090E00E948220CE018F5B9F4F99
:102C300020E2FC0111922A95E9F7A2DFC05ADF4F8A
:102C40000FB6F894DEBF0FBECDBFDF91CF911F91BD
:102C50000F910895FF920F931F93CF93DF93CDB7FA
:102C6000DEB7C054D1090FB6F894DEBF0FBECDBF9A
:102C700020E2F22E8E010F5D1F4FF8012F2D1192D1
:102C80002A95E9F725E529A36AA3FC010190002014
:102C9000E9F7E81BED5FEBA34CA3FC0101900020DA
:102CA000E9F73197AF01481B590BBC01CE0185965E
:102CB0000E941E3460E270E0C801E8DE61E070E06E
:102CC00080E090E00E948220CE010196FC011192EA
:102CD000FA94E9F755DF8981853539F48A8188329C
:102CE00021F481E09D81913309F080E0C05CDF4FE9
:102CF0000FB6F894DEBF0FBECDBFDF91CF911F910D
:102D00000F91FF900895FF920F931F93CF93DF933E
:102D1000CDB7DEB7C054D1090FB6F894DEBF0FBEF1
:102D2000CDBF20E2F22E8E010F5D1F4FF8012F2D37
:102D300011922A95E9F725E529A36AA3FC010190E0
:102D40000020E9F7E81BED5FEBA34CA3FC01019029
:102D50000020E9F73197AF01481B590BBC01CE01A8
:102D600085960E941E3460E270E0C8018FDE61E04B
:102D700070E080E090E00E948220CE010196FC018C
:102D80001192FA94E9F7FCDE89818535F1F48A81A4
:102D90008832D9F480EF5DD68DE05BD680E559D6D8
:102DA00010E0212F30E08B8190E00497281739073D
:102DB00054F4E5E0F0E0EC0FFD1FE20FF31F80811B
:102DC00048D61F5FEECF87EF44D6C05CDF4F0FB60B
:102DD000F894DEBF0FBECDBFDF91CF911F910F9151
:102DE000FF9008950F931F93CF93DF93CDB7DEB776
:102DF000C056D1090FB6F894DEBF0FBECDBF8E010D
:102E00000F5F1F4F20E4F80111922A95E9F725E59D
:102E100029836A83FC0101900020E9F7E81BED5F3C
:102E2000EB834C83FC0101900020E9F73197AF015F
:102E3000481B590BBC01CE0105960E941E3460E26E
:102E400070E0C80123DE61E070E080E090E00E9465
:102E50008220005C1F4F80E2F80111928A95E9F709
:102E6000C8018EDEF8018081853529F5818188329F
:102E700011F59091800282819C3179F49CEF980F3A
:102E8000885E80938002ADE9B2E08E2F801B8917A7
:102E900090F484818D933196F8CF84508093800292
:102EA000A1E8B2E0F8019E2F901B981720F49481BE
:102EB0009D933196F8CFC05ADF4F0FB6F894DEBF1E
:102EC0000FBECDBFDF91CF911F910F9108950F934A
:102ED0001F93CF93DF93CDB7DEB7C054D1090FB6A0
:102EE000F894DEBF0FBECDBFDE01119620E4FD01D8
:102EF00011922A95E9F725E5298329E22A8324E01E
:102F0000260F2B832AE12C83482F9E012B5F3F4FF6
:102F10008C01802F841B861738F4F80181918F0172
:102F2000F90181939F01F5CF60E270E0CD01AEDD44
:102F3000C05CDF4F0FB6F894DEBF0FBECDBFDF9190
:102F4000CF911F910F9108958F929F92AF92BF9250
:102F5000CF92DF92EF92FF921F93CF93DF939091E6
:102F60000701891759F19F3F09F013C180930701A9
:102F70001092B0001092B1009091B00092609093C6
:102F8000B0009091B10091609093B100A82FB0E093
:102F9000FD01E750FE4FE081F0E0EE0FFF1FE15131
:102FA000FE4F0190F081E02DF0931105E0931005A4
:102FB000FD01E552FE4F90819093120549015A019F
:102FC000EB01182F61E070E00E94C72A9E0140E0EB
:102FD00050E060E074E284EF90E00E94F13169011A
:102FE0007A01F694E794D794C79481E0C81AD1087F
:102FF000E108F1088FEFC816D104E104F10409F0EB
:1030000008F4BFC069017A01F4E0F694E794D7941C
:10301000C794FA95D1F781E0C81AD108E108F10800
:103020008FEFC816D104E104F104C1F0B8F06901D2
:103030007A01E6E0F694E794D794C794EA95D1F73D
:1030400081E0C81AD108E108F1088FEFC816D10451
:10305000E104F10409F020F493E050C092E04EC086
:1030600069017A0187E0F694E794D794C7948A952A
:10307000D1F781E0C81AD108E108F1088FEFC8162E
:10308000D104E104F10409F008F481C0C32ED42E68
:10309000E52EFF2481E0C81AD108E108F1088FEF7E
:1030A000C816D104E104F10409F008F46CC0690108
:1030B0007A0169E0F694E794D794C7946A95D1F7BA
:1030C00081E0C81AD108E108F1088FEFC816D104D1
:1030D000E104F10409F008F458C0DA01C9013BE049
:1030E000B695A795979587953A95D1F76C017D018F
:1030F00021E0C21AD108E108F10897E08091B100FF
:10310000887F982B9093B1002097A1F48091700054
:103110008D7F8093700060E0812FDF91CF911F91B0
:10312000FF90EF90DF90CF90BF90AF909F908F90E7
:103130000C94172B81149104A104B10471F0DE01E9
:10314000AA0FBB1FA50194010E943E3228EE33E076
:1031500040E050E00E94F13104C020E03AEC4AE93E
:103160005BE3C092B30020931A0530931B05409394
:103170001C0550931D058091700082608093700043
:1031800008C091E0BBCF95E0B9CF96E0B7CF94E00F
:10319000B5CFDF91CF911F91FF90EF90DF90CF904F
:1031A000BF90AF909F908F900895909107018913E1
:1031B00013C09FEF90930701909170009D7F9093B3
:1031C000700091E09093B0009091B1009877946076
:1031D0009093B1001092B30060E00C94172B1F92F3
:1031E0000F920FB60F9211242F933F934F935F933B
:1031F0006F937F938F939F93AF93BF93EF93FF93BF
:1032000080911A0590911B05A0911C05B0911D0598
:10321000892B8A2B8B2B51F190911205E09110058F
:10322000F091110580818927808380911A05909102
:103230001B05A0911C05B0911D05181619061A064C
:103240001B06BCF480911A0590911B05A0911C05EA
:10325000B0911D050197A109B10980931A059093BA
:103260001B05A0931C05B0931D0503C080910701A9
:103270009CDFFF91EF91BF91AF919F918F917F91D3
:103280006F915F914F913F912F910F900FBE0F90D3
:103290001F901895AC01E0916005F09161053097A1
:1032A000E1F09091B6028091B5029817B0F090E0ED
:1032B000292F30E02617370754F4DA01A20FB31F85
:1032C0008C91D901A05EBA4F8C939F5FF1CF109281
:1032D000B6026093B502CB0109940895E0911E05F2
:1032E000F0911F05309729F01092B3021092B202AC
:1032F000099408951092240381E080932203109290
:10330000210361E082E10E94172B61E083E10E94CA
:10331000172BE9EBF0E080818E7F808380818D7FA9
:10332000808388E48093B80085E48093BC0008958E
:10333000413208F045C0909124039111FCCF91E0F7
:1033400090932403209322032FEF2093B70210922F
:10335000FC02240F2093FB029093230390912303FC
:10336000880F892B8093230380912103813071F48E
:1033700010922103809123038093BB008091BC00B5
:1033800083FDF8CF85EC8093BC0003C085EE80936D
:10339000BC00809124038130E1F38091FC0284170A
:1033A00010F44091FC02ADEFB2E0962FFB018E2F9E
:1033B000891B841718F48D918193F9CF842F089578
:1033C00080E008950F93413208F04CC0909124039F
:1033D0009111FCCF32E030932403009322033FEF9E
:1033E0003093B7021092FC024093FB02562FADEFD0
:1033F000B2E0FB013E2F351B341718F431913D9399
:10340000F9CF1092230330912303880F832B8093ED
:10341000230380912103813071F410922103809164
:1034200023038093BB008091BC0083FDF8CF85EC23
:103430008093BC0003C085EE8093BC00222321F062
:10344000809124038230D1F38091B7028F3F79F0CD
:103450008091B702803241F08091B702803331F021
:1034600094E005C091E003C092E001C093E0892F91
:103470000F9108954091D902262F30E0240F311D7D
:1034800021323105DCF4209124032430C9F4FC01FD
:1034900080E090E0861758F43091D9022191DC0148
:1034A000A552BD4FA30FB11D2C930196F3CF809170
:1034B000D902680F6093D90280E0089581E00895F1
:1034C00082E0089585ED8093BC008091BC0084FD6E
:1034D000FCCF10922403089585EC8093BC001092D9
:1034E000240308951F920F920FB60F9211242F9369
:1034F0003F934F935F936F937F938F939F93AF937C
:10350000BF93EF93FF938091B900887F803609F4D1
:10351000ACC070F5883209F461C090F4803109F4D0
:1035200055C038F4882309F40BC1883009F44EC023
:103530000AC1883109F452C0803209F465C003C160
:10354000803409F471C050F4803309F45DC08833CD
:1035500009F0F9C08093B702BFDFF5C0803509F4E8
:1035600057C0883509F468C0883409F0ECC0EAC057
:10357000883909F4DBC0A8F4883709F476C038F438
:10358000883609F472C0803709F46FC0DCC088380F
:1035900009F4CCC0803909F471C0803809F0D3C077
:1035A0006DC0803B09F497C038F4803A09F47BC0C1
:1035B000883A09F490C0C7C0803C09F4BBC0883C7D
:1035C00009F4B8C0883B09F49BC0BDC080912303B7
:1035D0008093BB0085EC8093BC00B5C09091FC0249
:1035E0008091FB029817A0F5E091FC0281E08E0F1C
:1035F0008093FC02F0E0E350FD4F80818093BB009C
:1036000085EC8093BC009FC08093B7025BDF9BC0BA
:10361000E091FC0281E08E0F8093FC028091BB0060
:10362000F0E0E350FD4F80839091FC028091FB021B
:10363000981708F07BC076C0E091FC0281E08E0F05
:103640008093FC028091BB00F0E0E350FD4F80834B
:1036500080912203811176C081E08093210384EA66
:103660008093BC00109224036EC083E080932403F7
:103670001092B80285EC8093BC0065C08091B802BE
:10368000803208F053C0E091B80281E08E0F809341
:10369000B8028091BB00F0E0E754FD4F808385ECD9
:1036A0008093BC0050C018DF8091B802803230F4A3
:1036B000E091B802F0E0E754FD4F10826091B8024B
:1036C00070E0E0911D03F0911E0389EB92E00995F3
:1036D0001092B80238C084E0809324031092DA027A
:1036E0001092D902E0911F03F09120030995809177
:1036F000D902811105C081E08093D9021092DB02CA
:10370000E091DA0281E08E0F8093DA02F0E0E55278
:10371000FD4F80818093BB009091DA028091D902A5
:10372000981720F485EC8093BC000DC085E8809349
:10373000BC0009C085EC8093BC001092240303C038
:103740001092B702BFDEFF91EF91BF91AF919F91B1
:103750008F917F916F915F914F913F912F910F903A
:103760000FBE0F901F9018951092B6021092B502DE
:103770001092B3021092B202BDDD8EE699E19093F1
:10378000200380931F038AE499E190931E038093A2
:103790001D030895462F613208F040E221E060E207
:1037A00075E0C6DD1092B6028093B502089591E0EF
:1037B0009093B1028093B4021092B3021092B202BD
:1037C00008950F93CF93C82F0C2F21E04091B202A0
:1037D00060E475E08091B402F5DD9091B202992326
:1037E00011F08111F1CF1092B3021092B202109237
:1037F000B102CF910F910895CF93DF931F92CDB770
:10380000DEB789838091B1028823A1F08091B20252
:103810008032B8F48091B302E82FF0E0E05CFA4F18
:10382000998190838F5F8093B3028093B20281E08D
:1038300090E009C061E0CE0101961CDE81E090E0DD
:1038400002C080E090E00F90DF91CF9108958091C9
:10385000B50290E02091B602821B910908959091E3
:10386000B6028091B502981750F4E92FF0E0E05EBF
:10387000FA4F208130E09F5F9093B60202C02FEF95
:103880003FEFC90108958F929F92AF92BF92CF925E
:10389000DF92EF92FF92CF93DF9390E0FC01E0582C
:1038A000FA4FC081FC01EE59FA4FD081880F991F61
:1038B000880F991FFC01E859FA4FC080D180E2803F
:1038C000F3802C2F277081E090E0AC0102C0440F00
:1038D000551F2A95E2F79A01EC2FF0E033E0F695B8
:1038E000E7953A95E1F7AF01440F551FE40FF51F37
:1038F000B096322F30954281342332833181232B8D
:103900002183ED2FF0E073E0F695E7957A95E1F7E6
:103910009F01220F331FE20FF31FB0962D2F277048
:1039200001C0880F2A95EAF78095918198239183A9
:1039300092818923828360E08C2F0E94172B82E082
:1039400090E019D461E08C2F0E94172B8AE090E060
:1039500012D460E08C2F0E94172BAFD34B015C0177
:103960008D2F0E94452B882321F0A7D34B015C01AA
:1039700019C0A3D3DC01CB0188199909AA09BB0995
:10398000C816D906EA06FB0658F7EFCF96D3DC0136
:10399000CB0188199909AA09BB09C816D906EA06F4
:1039A000FB0628F08D2F0E94452B8111EFCF85D388
:1039B000681979098A099B0928E330E040E050E062
:1039C0000E94F131C901DF91CF91FF90EF90DF901C
:1039D000CF90BF90AF909F908F900895CF93DF933B
:1039E0001F92CDB7DEB78FB78983F89489815F9333
:1039F00050E85093610050E0509361005F918FBF99
:103A00000F90DF91CF910895CF93DF931F92CDB7A1
:103A1000DEB79FB79983F8949981811106C06095AC
:103A2000809164006823609364009FBF0F90DF91D2
:103A3000CF91089595B184B180628F7784B9892F31
:103A4000806A85B908958091C000881F8827881FE3
:103A500008959091C00095FFFCCF8093C60080E050
:103A600008958091C60008954F925F926F927F9261
:103A70008F929F92AF92BF92CF92DF92EF92FF927E
:103A80000F931F93CF93DF93EC016A017B01C90170
:103A9000B80143E096958795779567954A95D1F754
:103AA000488141FD0CC048015901B3E1B694A79487
:103AB00097948794BA95D1F72B013C0112C0280145
:103AC0003901F4E07694679457944794FA95D1F7C6
:103AD00048015901A4E1B694A79497948794AA95B4
:103AE000D1F74C145D046E047F0460F1C814D9044E
:103AF000EA04FB0438F1488141FF0EC0A70196019A
:103B0000220F331F441F551F0E94F131DA01C901F2
:103B10000197A109B10912C0C901B80124E0969525
:103B20008795779567952A95D1F7A70196010E9409
:103B3000F131DA01C9010197A109B1099D838C8393
:103B400081E001C080E0DF91CF911F910F91FF9044
:103B5000EF90DF90CF90BF90AF909F908F907F902D
:103B60006F905F904F9008950F931F93CF93DF93C3
:103B7000EC018B01803C910519F462E080E044DFA8
:103B80008A818F738A83888182608883F801968115
:103B9000358184812A81482F4370440F297F242B4B
:103BA0002A8329818470880F880F2B7F822B898339
:103BB0008A818F7C832B8A838A81282F277FF8E054
:103BC0009F9FC0011124822B8A83F801408151817B
:103BD0006281738100E014E224EF30E0CE0144DF23
:103BE000998198609983998190619983DF91CF91B0
:103BF0001F910F9108955F926F927F928F929F9283
:103C0000AF92BF92CF92DF92EF92FF920F931F93EA
:103C1000CF93DF934A01FB015080452B19F4882490
:103C20008A94982C7B013B01680E791EC0E0D0E09D
:103C300000E010E087E0C82ED12CE614F70489F1EB
:103C40000815190508F04AC05701F70181917F0155
:103C50000C2E01C0880F0A94EAF785298F77F9DEC8
:103C60000F5F1F4FF501808190E096012C1B3D0BEB
:103C700002C0959587952A95E2F7582E2196C73070
:103C8000D105D8F28016910651F0852D8F77E1DEAF
:103C90000F5F1F4F551C5524551C2797F0CF8401EB
:103CA000CCCF2097D9F008151905C0F481E090E039
:103CB00001C0880FCA95EAF781508521DF91CF9125
:103CC0001F910F91FF90EF90DF90CF90BF90AF903A
:103CD0009F908F907F906F905F90BBCEDF91CF9140
:103CE0001F910F91FF90EF90DF90CF90BF90AF901A
:103CF0009F908F907F906F905F900895AF92BF924A
:103D0000CF92DF92EF92FF920F931F93CF93DF93A7
:103D100028E0829F70011124082F000F000F000F70
:103D2000C0E0D0E010E082E0E81AF108C62ED12C05
:103D3000AA24A394B12CC7018C0F9D1F4297B0F405
:103D4000C6010C2E02C0959587950A94E2F780FF74
:103D50000DC08C2F800F0E94452B882339F0C501A0
:103D60000C2E01C0880F0A94EAF7182B2196C83050
:103D7000D10509F7812FDF91CF911F910F91FF900E
:103D8000EF90DF90CF90BF90AF900895AF92BF9229
:103D9000DF92EF92FF920F931F93CF93DF93CDB7F4
:103DA000DEB7A0970FB6F894DEBF0FBECDBFB82E1A
:103DB000D62E8A0180917F02882309F4EFC09E01EC
:103DC0002F5F3F4F790183EF860F8E3008F040C0A0
:103DD00080E2D9011D928A95E9F780EF8983BA8242
:103DE0005901BA01265E3F4FF701AB01DB018D910E
:103DF000BD018F778283DA018C91881F8827881F05
:103E000083833296E217F30781F76CE1C7015FD82D
:103E100080E2F70111928A95E9F7F8013D966DE08D
:103E20006D1591F09F0181918F77D5018C93D90108
:103E30008C91881F8827881FD50111968C936F5FFE
:103E4000B2E0AB0EB11CECCF70E06D5071096EC0EA
:103E5000EAE180E2E61708F076C0D9011D928A9562
:103E6000E9F780EF8983BA825901BA019E01255E84
:103E70003F4FF701AB01DB018D91BD018F7782834D
:103E8000DA018C91881F8827881F83833296E21776
:103E9000F30781F76CE1C7011AD880E2F7011192AC
:103EA0008A95E9F7F8013D969E01235E3F4FAF01E9
:103EB00081918F77D5018C93DA018C91881F8827A7
:103EC000881FD50111968C93B2E0AB0EB11CA216DF
:103ED000B30669F76CE1C7010E94671780E2F7013A
:103EE00011928A95E9F7F8017B966BE185E6860FDA
:103EF000880F6D15C1F090E08F01A701480F591F81
:103F000021912F77DA012C9322E030E02C0F3D1F16
:103F1000820F931FD8012C91221F2227221FDC0120
:103F20002C936F5FE3CF70E06B517109FB01EE0FD3
:103F3000FF1FEE0DFF1D87EF8083660F6F5FC701C8
:103F40000E94671740C0F90111928A95E9F780EF46
:103F50008983BA82D901942F1296842F891B8D15DB
:103F600078F49A01FA018191AF018F778C93F9016E
:103F70008081881F8827881F11968C931197ECCF1A
:103F8000F701ED0DF11DED0DF11D87EF82836D2D14
:103F9000660F6D5FC7010E94671715C080EF59DD7E
:103FA0008B2D57DD7801ED0CF11C0E151F0549F026
:103FB00040E050E0B80181E090E01DDE0F5F1F4F50
:103FC000F4CF87EF46DDA0960FB6F894DEBF0FBEA4
:103FD000CDBFDF91CF911F910F91FF90EF90DF90B8
:103FE000BF90AF900895FC0101900020E9F7319750
:103FF000BF01681B790BAC0181E7C8CEEF92FF923D
:104000001F93CF93DF9300D000D01F92CDB7DEB7C0
:10401000282F30E0F901E757FA4F9081162F192326
:10402000A9014D525A4F7A01FA019081191731F1C5
:10403000212F30E03D832C8390917F028F70806927
:10404000992389F08983812F8F778A83220F232FE9
:10405000221F330B31952F772B8363E0CE0101961E
:104060000E94671709C0F5DC42E050E0BE016C5FBA
:104070007F4F82E090E0BFDDF70110830F900F903B
:104080000F900F900F90DF91CF911F91FF90EF90C5
:1040900008950F931F93CF93DF93EC018C01060FCC
:1040A000111DC017D10719F08991D3DCFACFDF9128
:1040B000CF911F910F91089508953FB7F894809183
:1040C0008B0490918C04A0918D04B0918E0426B540
:1040D000A89B05C02F3F19F00196A11DB11D3FBF40
:1040E000BA2FA92F982F8827820F911DA11DB11DCE
:1040F000BC01CD0142E0660F771F881F991F4A95CA
:10410000D1F708958F929F92AF92BF92CF92DF9294
:10411000EF92FF926B017C01D0DF4B015C01C11477
:10412000D104E104F104F1F0C7DFC7DFDC01CB010A
:1041300088199909AA09BB09883E9340A105B105D0
:1041400070F321E0C21AD108E108F10888EE880E68
:1041500083E0981EA11CB11CC114D104E104F10438
:1041600021F7DDCFFF90EF90DF90CF90BF90AF9021
:104170009F908F9008958230910538F0880F991F95
:10418000880F991F05970197F1F7089510928106FE
:10419000109258061092570610928E0510928D05B7
:1041A0001092D00510928C0580E8809382060895C5
:1041B00080918605882339F06091890580E09EDD35
:1041C000682F80E01BDF80918705882339F060919C
:1041D0008A0581E093DD682F81E010DF80918805FA
:1041E000882339F060918B0582E088DD682F82E0BA
:1041F00005CF08950F931F93CF93DF9300D000D086
:104200001F92CDB7DEB7082F7D836C83182F106EF9
:104210001983862F972F262F2F772A83880F892F90
:10422000881F990B91958F778B8363E0CE01019660
:104230000E946717003180F48C819D818115904424
:1042400058F4812F06DC42E050E0BE016C5F7F4FE6
:1042500082E090E0D0DC06C08FEFFBDB8FEFF9DB74
:104260008FEFF7DB0F900F900F900F900F90DF9173
:10427000CF911F910F910895CF93C2EF8EE08C0FD5
:10428000C830A8F40E94C12A823089F480913F038B
:1042900090E00C2E02C0959587950A94E2F780FF76
:1042A00006C08C2F0E94742BBC018C2FA3DFCF5F24
:1042B000C83021F7CF910895EF92FF920F931F938B
:1042C000CF93DF93D82F8B01C42FF22E6F3F7F4FF8
:1042D00071F08D2F6CDA802F8FDA8F2D72DA80914A
:1042E000310390913203009721F045DF02C000E0D6
:1042F00010E06C2F8D2F4EDAEC2EF12CA8DAE81698
:10430000F9060CF0A4DAD0938F05009390059FDA9C
:10431000892B61F462E06C0F4FE855E087E7DF918D
:10432000CF911F910F91FF90EF9030CD0FE815E0E6
:10433000C8018F5895408E159F0564F790DAF801F3
:10434000828385DA0F5F1F4F892B91F7E3CFCF93DD
:10435000C0E08EEE8C0F823028F466E070E08C2F87
:104360000E94C72ACF5FC631A1F781E08093300356
:10437000CF91FAC9EF92FF921F93CF93DF93CDB7FE
:10438000DEB72A970FB6F894DEBF0FBECDBF80917F
:104390006602909167029C012F5F3F4F3093670246
:1043A000209366022091680230916902281739072C
:1043B0000CF077C08091640290916502892B09F41A
:1043C00070C08091630290E00E94DD0EBC0190916C
:1043D0006302492F50E0FA01E350FB4FE080FA01FD
:1043E000E950FB4FF08010926702109266029093A2
:1043F00062029F5F90936302209164023091650294
:10440000215031094217530714F010926302672BB1
:1044100009F047C05091F2044091F3043091F40444
:104420002091F504852F840F830F820F11E0909166
:10443000F604891301C010E080917F028823C1F047
:10444000CE0101966AE0FC0111926A95E9F760EFEE
:10445000698365E66A83EB82FC825D834E833F83DA
:104460002887198727EF2A876AE00E94671719C0F3
:1044700080EFEFDA85E6EDDA8E2DEBDA8F2DE9DAD3
:1044800082EFE82E84E0F82EF70181917F01E1DAD6
:10449000F6EFEF16F4E0FF06B9F7812FDADA87EFCF
:1044A000D8DA2A960FB6F894DEBF0FBECDBFDF91E3
:1044B000CF911F91FF90EF9008950F931F93CF938B
:1044C000DF9300D000D000D0CDB7DEB780912A03B3
:1044D00090912B039C012F5F3F4F30932B03209330
:1044E0002A032091280330912903281739070CF05B
:1044F0005FC010922B0310922A0380912E0390919B
:104500002F03892B09F454C080912603BCD9209134
:1045100026033091270320932503A9014F5F5F4FA6
:10452000509327034093260340912E0350912F036D
:10453000415051092417350724F010922703109297
:104540002603182F1F77880F892F881F990B9195A5
:10455000082F0F7780917F028823C9F0CE01019642
:1045600046E0FC0111924A95E9F740EF498343E6A2
:104570004A833327F901E058FA4F20812B831C83AB
:104580000D8327EF2E8366E00E94671711C080EF2E
:1045900060DA83E65EDAE0912503F0E0E058FA4F56
:1045A000808157DA812F55DA802F53DA87EF51DA7D
:1045B00026960FB6F894DEBF0FBECDBFDF91CF9128
:1045C0001F910F9108951F920F920FB60F92112411
:1045D0000F931F932F933F934F935F936F937F930B
:1045E0008F939F93AF93BF93EF93FF93E09A0E94B3
:1045F000A62D0091DB041091DC042091DD043091A4
:10460000DE04DC01CB01801B910BA20BB30B883CB9
:104610009105A105B10528F082E00E9465040E9481
:104620006B030E94A62D6093DB047093DC048093DF
:10463000DD049093DE04FF91EF91BF91AF919F91C4
:104640008F917F916F915F914F913F912F911F912A
:104650000F910F900FBE0F901F9018951F920F9201
:104660000FB60F9211240F931F932F933F934F93E5
:104670005F936F937F938F939F93AF93BF93EF93CA
:10468000FF93E19A0E94A62D0091DB041091DC04B7
:104690002091DD043091DE04DC01CB01801B910B05
:1046A000A20BB30B883C9105A105B10528F083E06E
:1046B0000E9465040E946B030E94A62D6093DB0498
:1046C0007093DC048093DD049093DE04FF91EF91FE
:1046D000BF91AF919F918F917F916F915F914F911A
:1046E0003F912F911F910F910F900FBE0F901F9030
:1046F0001895AF92BF92CF92DF92EF92FF920F93F5
:104700001F93CF93DF93CDB7DEB7E4970FB6F8943E
:10471000DEBF0FBECDBFADB6BEB69091D705993402
:1047200009F449C0993709F04CC020918D053091AA
:104730008E052330310508F087C5E0900901F0901F
:104740000A01F70101900020E9F731976F01CE18B7
:10475000DF0880917F028823A9F0FE01319685E071
:10476000DF011D928A95E9F780EF89839A8382E0C1
:104770008B8386E08C8387EF8D8365E0CF010E9479
:10478000671762C580EF65D989E763D982E061D98F
:1047900086E05FD900E010E0C016D10609F468C3D6
:1047A000B701600F711F40E050E081E090E023DA34
:1047B0000F5F1F4FF1CFE0913303F0913403099560
:1047C00043C500918D050150943609F4F2C170F48F
:1047D0009135E9F020F49D3009F43CC235C59F3590
:1047E00009F478C1923609F4A1C12EC59637E1F0DB
:1047F00038F4993609F40AC1903709F445C124C543
:10480000983709F4EBC09A3709F419C11DC580EF38
:10481000898382E58A8381E08B8387EF8C8364E0E0
:10482000CE01019636DC10C51091D90515FD0CC5D9
:104830000E947A198091D8052091D90526FB22275C
:1048400020F991E02927912F9871983051F130F497
:104850009111FAC40E94D71B12E007C0903109F4ED
:104860003DC0983109F46DC0EFC4101790F4212FAA
:1048700030E0F901E752FA4F8081879588278795C4
:10488000F901E852FA4F9081890F0E94FC1B1E5FCC
:10489000ECCF81E00E94E11B83E191E00197F1F709
:1048A000D3C44091DB056091DA05063079F470E0FD
:1048B000B0E84B9F600D711D11244091DD054795B7
:1048C000442747959091DC05490F06C0479544273A
:1048D0004795460F6FEF7FEFEFDCB6C4E09108011C
:1048E000E73024F086E491E07EDBAEC49091DB05F6
:1048F0003091DA05063081F4632F70E0F0E89F9F75
:10490000600D711D11249091DD059795992797955C
:104910004091DC05940F06C0979599279795930FC2
:104920006FEF7FEFEF5FE093080135E0E302F00106
:104930001124E75AF94F8083728361839383248320
:1049400083C42091080112163CF490E0622F022EDD
:10495000000C770B35E00FC08FEF8093080174C413
:10496000349FF001359FF00D1124E75AF94F408133
:10497000841739F09F5F492F50E06417750784F75B
:1049800090E085E0492F50E0641775071CF19830DE
:10499000F8F4FA0131968E9FD0018F9FB00D11244B
:1049A000A75AB94F3C91849FF001859FF00D1124C7
:1049B000E75AF94F308311964D915C9112975283CB
:1049C000418313963C911397338314963C9134831F
:1049D0009F5FD8CF21502093080136C4023080F069
:1049E0002091D9058091D80590E040E8249F800D62
:1049F000911D1124009721F090933203809331038D
:104A000080913003811120C4A2DC1EC480EF898311
:104A10008AE68A83FE01339682EF883010F4982F5D
:104A200001C09FE791938F5F8830B9F787EF898F37
:104A300080917F0269E1882309F451C14BC18091C3
:104A4000D9052091D80530E060E8869F200D311D02
:104A5000112430930C0120930B012115310509F429
:104A6000F3C388E290E0B9010E94CA317093290330
:104A70006093280380ED97E0B9010E94CA317093DA
:104A8000690260936802E0C3053008F4DDC3109149
:104A9000D8058EEF810F823108F0D6C38091DC05F6
:104AA0004091DB0550E070E8879F400D511D1124B7
:104AB0008091DA056091D90570E090E8899F600DDA
:104AC000711D1124812F0E94131464E070E0812F66
:104AD0005ED5BAC39091D8058091D90591111BC0BC
:104AE0009091DD052091DC0530E0A0E89A9F200D33
:104AF000311D1124032E000C440B550B9091DB0546
:104B00006091DA0570E0B0E89B9F600D711D112483
:104B10000E94A41799C3913009F096C320E030E0B9
:104B2000A90160E070E00E94A4178EC320912E03BB
:104B300030912F03263031050CF086C38091D805C3
:104B400080932D039091D90590932C03F901EE0FDA
:104B5000FF1FEE0FFF1FE859FA4F6091DB054091F0
:104B6000DA0550E070E8679F400D511D1124052EB5
:104B7000000C660B770B4083518362837383F901CA
:104B8000E058FA4F8083F901EE59FA4F90836CE0B8
:104B900070E0FDD46CE070E080912C03F8D480913B
:104BA0002E0390912F03019690932F0380932E0351
:104BB0004BC32091640230916502263031050CF020
:104BC00045C08091D8059091D905492F50E04631D4
:104BD000510531F441E0F901ED5FFA4F40830DC01A
:104BE0004B30510531F44AE0F901ED5FFA4F408353
:104BF00004C087E591E0F7D927C3F901E350FB4FE3
:104C00008083F901E950FB4F90836FE070E0BFD4DF
:104C100080916402909165020E94DD0E892B09F05B
:104C200013C360916402709165026F5F7F4F709350
:104C300065026093640280916802909169020E940B
:104C4000DE317093690260936802FEC28CE891E0E5
:104C5000CAD9FAC28091D8057E0191E2E90EF11C11
:104C600094E1D7011D929A95E9F78E30E1F50E9403
:104C70007A1910E001E0802F0E94D71B81E00E948A
:104C8000E11B811105C0F701E10FF11D00831F5FDA
:104C90000F5F0F3781F780EF89838DE08A838EE085
:104CA0008B831C83CE010596D701AC012A2F2E19C8
:104CB000211728F42D91FC012193CF01F7CFFA01A0
:104CC000E10FF11D87EF808380917F0265E0610F26
:104CD000882329F0CE0101960E946717B5C2CE0144
:104CE0000196D7D9B1C281119DC08091D90581307B
:104CF00009F04DC0E091DA05E093E204F0E0E953F9
:104D0000FE4F8081E82FF0E033E0F695E7953A9585
:104D1000E1F79F01220F331FE20FF31FB096282FF8
:104D2000277081E090E001C0880F2A95EAF780950E
:104D30009181982391839281892382830E944F03DA
:104D40008091E204823081F48091410381117CC220
:104D500081E080934103F894E89A80916900826031
:104D600080936900789470C2833009F06DC280919D
:104D70004003811169C281E080934003F894E99A6D
:104D80008091690088608093690078945DC2811188
:104D90005BC24091DB0550E060E070E0ACE1440FA5
:104DA000551F661F771FAA95D1F78091DC0590E00B
:104DB000A0E0B0E015E1880F991FAA1FBB1F1A954C
:104DC000D1F7482B592B6A2B7B2B8091DD0590E086
:104DD000A0E0B0E00EE0880F991FAA1FBB1F0A9544
:104DE000D1F7482B592B6A2B7B2B8091DE0590E065
:104DF000A0E0B0E027E0880F991FAA1FBB1F2A95EB
:104E0000D1F7842B952BA62BB72B2091DF052F777D
:104E1000BC01CD01622B20E230E04091DA050E9416
:104E2000680512C2873109F033C18091D90581111B
:104E300023C0F090DA050091DB05F0E80F9F8001B8
:104E400011248091DC058F77082B80EF0E94291DAB
:104E50008DE00E94291D87E10E94291D22E54FEF68
:104E6000B8018F2D0E948B06811181E00E94291DBF
:104E700087EF0E94291DE8C1813009F049C00091E7
:104E8000DF0510E020E030E075E1000F111F221F68
:104E9000331F7A95D1F78091E00590E0A0E0B0E073
:104EA000EEE0880F991FAA1FBB1FEA95D1F7082BC8
:104EB000192B2A2B3B2B8091E10590E0A0E0B0E07C
:104EC000F7E0880F991FAA1FBB1FFA95D1F7082B8F
:104ED000192B2A2B3B2B8091E2058F77082B4091D1
:104EE000DD0560E8469FA00111248091DE058F77E3
:104EF000482B6091DB0580E8689FB0011124809108
:104F0000DC058F77682B8091DA050E94C50A9CC169
:104F1000823039F46091DB058091DA050E947809CE
:104F200093C1833009F079C0C090E305D12CE12C06
:104F3000F12C85E1CC0CDD1CEE1CFF1C8A95D1F711
:104F40008091E40590E0A0E0B0E02EE0880F991F8A
:104F5000AA1FBB1F2A95D1F7C82AD92AEA2AFB2AF9
:104F60008091E50590E0A0E0B0E037E0880F991F60
:104F7000AA1FBB1F3A95D1F7C82AD92AEA2AFB2AC9
:104F80008091E6058F77C82A0091DF0510E020E0C8
:104F900030E045E1000F111F221F331F4A95D1F762
:104FA0008091E00590E0A0E0B0E05EE0880F991FFE
:104FB000AA1FBB1F5A95D1F7082B192B2A2B3B2B65
:104FC0008091E10590E0A0E0B0E067E0880F991FD4
:104FD000AA1FBB1F6A95D1F7082B192B2A2B3B2B35
:104FE0008091E2058F77082B4091DD0590E8499F7D
:104FF000A00111248091DE058F77482B6091DB059D
:10500000A0E86A9FB00111248091DC058F77682B9E
:105010008091DA050E94530B17C1843039F46091F6
:10502000DB058091DA050E945F0C0EC1853039F4F2
:105030006091DB058091DA050E94E20C05C18630A3
:10504000F9F40091E00510E02091DF0530E0409197
:10505000DD05B0E84B9FA00111248091DE058F771C
:10506000482B6091DB05E0E86E9FB0011124809130
:10507000DC058F77682B8091DA050E94F40DE4C07F
:10508000873009F0E1C08091DA050E94230BDCC073
:10509000893109F4D9C0803309F06FC08091D905F6
:1050A000811103C00E94E412CFC0813029F48091A5
:1050B000DA050E949212C8C00DB71EB7823071F592
:1050C0008091DA0590E00E94D40F4091DB05242FF7
:1050D00030E0C90101966DB77EB7681B790B0FB63A
:1050E000F8947EBF0FBE6DBF8DB79EB70196ACED35
:1050F000B5E0682FFC015E2F561B541718F45D9124
:105100005193F9CFFC01E20FF31F10820E941D1290
:105110000FB6F8941EBF0FBE0DBF96C06091DB05A1
:105120008091DA050E94A10F4091DC05242F30E028
:10513000C9010196ADB7BEB7A81BB90B0FB6F8945D
:10514000BEBF0FBEADBF8DB79EB70196ADEDB5E04A
:10515000682FFC015E2F561B541718F45D91519374
:10516000F9CFFC01E20FF31F10820E9458110FB615
:10517000F8941EBF0FBE0DBF67C0803411F44AE023
:1051800003C0813469F44BE069E289ED95E00E9447
:10519000771561E070E080E090E00E94822054C0CA
:1051A000833409F051C0D2D46B017C014CE069E238
:1051B0008BE891E00E94DE1561E070E080E090E015
:1051C0000E948220EE24FF244DE069E28BE891E00A
:1051D0000E942A16811120C0B9D4DC01CB018C19A0
:1051E0009D09AE09BF0989399A43A105B10568F047
:1051F00080EF0E94291D8DE00E94291D80E50E94FC
:10520000291D87EF0E94291D1FC068EE73E080E012
:1052100090E00E948220D8CF64E670E080E090E0C9
:105220000E9482204EE069E28BE891E00E948316A2
:105230006AE070E080E090E00E94822046E169E24E
:105240008BE891E00E94DE150FB6F894BEBE0FBE4B
:10525000ADBEE4960FB6F894DEBF0FBECDBFDF91B2
:10526000CF911F910F91FF90EF90DF90CF90BF9063
:10527000AF9008951F93CF93DF93182FEB01809188
:10528000820690E068177907A0F0E091D904F091C8
:10529000DA0481E0309799F08093D6058091E0049C
:1052A0009091E10409958091820690E0C817D90792
:1052B00028F4C952DA4F188380E001C081E0DF9101
:1052C000CF911F910895CF92DF92FF920F931F937A
:1052D000CF93DF93909181069923D9F0873F51F4C2
:1052E00010928106DF91CF911F910F91FF90DF9077
:1052F000CF90FFC960918D0570918E05BBDF8091C5
:105300008D0590918E05019690938E0580938D0565
:1053100030C160915706709158066115710509F406
:10532000EFC087FDEDC0615071097093580660931E
:105330005706A0DF8091570690915806892B09F0F7
:1053400018C180918C05882309F413C1803D09F4AC
:10535000CAC030F48039B1F1803C09F4A5C0CDC099
:10536000843F09F452C0853F09F48EC0803E09F0A5
:10537000C4C01091D005163108F0BFC08091D80587
:105380008770C091D705CF77D0E090E8899FC00D96
:10539000D11D11240091D905812FF3D0833039F02C
:1053A000843009F0AAC0CE010E94A614A6C08EEFD8
:1053B000810F823108F0A1C0602F6F77AE01812F7D
:1053C000ADD19BC08091D7050091D80510E090E841
:1053D000899F000D111D1124F090D005FF0CFF0CCA
:1053E000FF0CC0E0D0E0CC24C394D12CB6018C2FAC
:1053F0000C2E01C0660F0A94EAF760238F0D17D1B7
:105400002196C830D10591F778C0D091D7050D2FDE
:1054100010E0C091D8058C2FB4D08F3709F46DC03F
:105420008EEF8C0F8231E8F4EC2FE695E695E69549
:105430002C2F2770F0E0E757FA4F81E090E001C091
:10544000880F2A95EAF70115110519F00B3011059F
:1054500021F49081892B808304C0809590818923D9
:105460008083B8018C2F93D0D23009F046C0CE5043
:1054700081E090E001C0880FCA95EAF790913F0360
:10548000892B80933F0339C0C091D8058EEF8C0FD4
:10549000823198F5D091D7058C2F73D0813069F582
:1054A0006D2F8C2FC4D029C04091D005483028F5ED
:1054B0008091D70550913F0381110BC081E090E0AE
:1054C00001C0880F4A95EAF78095852380933F03B2
:1054D00014C021E030E001C0220F4A95EAF7252BE5
:1054E00020933F030AC0E091D005E33030F4F0E0B0
:1054F000EA57FA4F8091D705808310928C0539C006
:10550000803F28F4982F9F709093D005807F803E35
:10551000B1F038F4803C29F1803D19F1803949F52A
:1055200017C0843FA9F0853F99F0803F11F581E0D5
:105530008093810610928E0510928D051AC023E08B
:1055400030E0309358062093570680938C0511C0A5
:1055500022E030E0309358062093570680938C0564
:1055600008C021E030E0309358062093570680931E
:105570008C05DF91CF911F910F91FF90DF90CF901D
:105580000895E82FF0E0ED57F94F8081089590E0FD
:10559000FC01ED57F94F20812F3709F447C0608394
:1055A0006115710521F06130710511F10895FC015B
:1055B000E35FFD4F8081E82FF0E033E0F695E7955B
:1055C0003A95E1F79F01220F331FE20FF31FB096C8
:1055D000282F277081E090E001C0880F2A95EAF714
:1055E0008095918198239183928189238283089564
:1055F000FC01E35FFD4FE0818E2F877001C0660FD5
:105600008A95EAF7F0E083E0F695E7958A95E1F769
:10561000CF01880F991FE80FF91FB096862F80954C
:105620009281892382838181682B61830895E82F89
:10563000F0E0E35FFD4FE0819E2F977021E030E0C6
:10564000A90102C0440F551F9A95E2F7CA01F0E084
:1056500093E0F695E7959A95E1F79F01220F331FA6
:10566000E20FF31FB096282F209532813223328328
:105670003181382B3183662321F09281892B8283FB
:1056800008958281282322830895E82FF0E0E35FC4
:10569000FD4FE0812E2F277081E090E001C0880F40
:1056A0002A95EAF7F0E093E0F695E7959A95E1F709
:1056B0009F01220F331FE20FF31FDF019096982FF7
:1056C000909511962C911197292311962C9311974F
:1056D00012962C911297922312969C9390A1982344
:1056E00081E009F480E0089590917A0090649093AD
:1056F0007A0090917A0094FFFCCF806480937C00C4
:1057000080917A00806480937A0080917A0086FD8F
:10571000FCCF809178009091790008952F923F926C
:105720004F925F926F927F928F929F92AF92BF92B1
:10573000CF92DF92EF92FF920F931F93CF93DF935D
:10574000C82FD0E0FE01E35FFD4F0081902F9770DE
:1057500021E030E0190101C0220C9A95EAF710E02F
:1057600073E0169507957A95E1F79801220F331F9C
:10577000020F131F005E1F4F922D9095F80122819A
:1057800092239283918192299183F4E0CC0FDD1FC3
:10579000FA95E1F7662319F0643639F461E047DFE2
:1057A000CE5BDC4F1F861E866EC0FE01EE5BFC4F9B
:1057B00088EC90E09387828787E390E095878487E1
:1057C0004115510511F053874287CE5BDC4FE62E21
:1057D000F12CFD86EC86CC24C394D12CDF86CE86BA
:1057E0002A853B85032E000C440B550B60E970EDB8
:1057F00083E090E018D649015A01F1E08F1A910830
:10580000A108B108C501B40140D420E030E048EC63
:1058100052E4A0D32B013C01B7010F2C000C880BE4
:10582000990B33D49B01AC01C301B201F8D45AD512
:10583000F9D32B013C0179836883C501B40125D4D8
:1058400020E030E048EC52E485D34B015C0164E693
:1058500070E06E197F09072E000C880B990B15D488
:105860009B01AC01C501B401DAD43CD5DBD37B8309
:105870006A835D824C82DF82CE8219861886F801A7
:105880008281282A2282E2E4F3E080E090E020E0B6
:1058900030E0468557854130510541F4DC01AA0FBF
:1058A000BB1FA756B94F2D933C9301962F5F3F4FD7
:1058B00070962431310569F79093830480938204B4
:1058C000F89410928000109281001092850010923E
:1058D000840081E090E0909389008093880080911B
:1058E0008100886080938100809181008160809335
:1058F00081008091810082608093810080916F009F
:10590000846080936F007894DF91CF911F910F9105
:10591000FF90EF90DF90CF90BF90AF909F908F90CF
:105920007F906F905F904F903F902F9008951F92BF
:105930000F920FB60F9211244F925F927F928F9227
:105940009F92AF92BF92CF92DF92EF92FF920F930E
:105950001F932F933F934F935F936F937F938F93F7
:105960009F93AF93BF93CF93DF93EF93FF930E94E7
:10597000231D882361F08091840490918504019611
:1059800090938504809384040E94311DF0CF409051
:10599000990650909A06809082049090830499E929
:1059A000A92E96E0B92E8501E0E0F0E0A201A4E086
:1059B000440F551FAA95E1F7E815F9050CF054C0FE
:1059C000E801A991B9918E01BD0184E0660F771FAE
:1059D0008A95E1F7CB018E5B9C4F7C01EC01288519
:1059E00039852130310581F5CD01835F9D4FEC0173
:1059F0007880872D90E0C3E096958795CA95E1F76A
:105A00006C01CC0CDD1C8C0D9D1D8096E701EE8099
:105A1000FF80D72DD7707D2EEC01EF2839F0FA806A
:105A200001C0220F7A94EAF72F2907C0FA8001C03B
:105A3000220F7A94EAF720952F212A83CB018E5BDF
:105A40009C4FEC01198618866E5B7C4F4E5B5C4F59
:105A5000EB012C813D81EA018C819D8182179307A6
:105A60000CF02D013196A2CFFA01EE5BFC4F448180
:105A7000558120E030E061E070E028153905F4F54B
:105A8000F501819191915F01DC01E4E0AA0FBB1F58
:105A9000EA95E1F7FD01EE5BFC4FC481D581C41BA3
:105AA000D50BD583C483CD2B31F5C681D781219702
:105AB00019F4C281D38102C0C081D181D583C4834E
:105AC000AE5BBC4F1696CD91DC911797FC01FF277A
:105AD00084E0EE0FFF1F8A95E1F7EE5BFC4F7187C4
